:020000040000FA
:040000007CEF06F09B
:1009AE0001010101C58AC5881200C580F8EC04F06A
:1009BE001200C584F8EC04F01200C586F8EC04F0C1
:1009CE001200C582F8EC04F01200016E01C0C9FFDE
:1009DE00F8EC04F01200E4EC04F0D9EC04F0C95089
:1009EE0012009EA6FDEF04F0FFEF04F0F8EF04F006
:1009FE009E961200520E036E000E046EC00E056E11
:100A0E00ADEC06F012000F0EC16E1E0E936EF19E2F
:100A1E008150E009816E1200948E949CAC84AB8E52
:100A2E00AB88810EAF6E9D8A1200016E9EA822EFDA
:100A3E0005F024EF05F01DEF05F001C0ADFF12002B
:100A4E0094869488280EC66E310EC86EC79CC78ECB
:100A5E009E96A1961200106E000E016E0F50EEECD7
:100A6E0005F0010E016E1050EEEC05F0120069EC6F
:100A7E0005F0D3EC05F00AEC05F027EC05F0A3EC3D
:100A8E0005F013EC05F01200036EDCEC04F0D00E52
:100A9E00ECEC04F00350ECEC04F00250ECEC04F03F
:100AAE00E0EC04F01200F02FF62FED2FE12FE42FE3
:100ABE00E72FEA2FBD2F722FA12FB42F172F313111
:100ACE0031300001C08EC09AC088C096C090C082DE
:100ADE00C094C292C19AC198000EC46E000EC36E2D
:100AEE00C2801200026EDCEC04F0D00EECEC04F0CE
:100AFE000250ECEC04F0E8EC04F0D10EECEC04F057
:100B0E00F2EC04F0036EE0EC04F003501200026EFF
:100B1E00DCEC04F0A00EECEC04F00250ECEC04F073
:100B2E00E8EC04F0A10EECEC04F0F2EC04F0036E31
:100B3E00E0EC04F003501200000E79EC05F0046EA8
:100B4E0004507F0B026E000E4BEC05F0020E79EC9A
:100B5E0005F0046E0450BF0B026E020E4BEC05F056
:100B6E001200C4EF05F002C0F6FF03C0F7FF080045
:100B7E00F5501CEC05F0024A032A02C0F6FF03C032
:100B8E00F7FF0800F5500009D8A4D0EF05F0D2EF1A
:100B9E0005F0BAEF05F01200000E956E9450F80BAA
:100BAE00946E8290000E016E020EEEEC05F0000EB9
:100BBE00016E380EEEEC05F0000E016E0C0EEEEC32
:100BCE0005F0000E016E010EEEEC05F01200026E45
:100BDE0001B0F4EF05F0F7EF05F08282F8EF05F0C3
:100BEE00829202C083FF82848294958E828082924A
:100BFE008284829483BE06EF06F008EF06F0FFEFC4
:100C0E0005F08290959E1200056EDCEC04F0A00EAD
:100C1E00ECEC04F00550ECEC04F00250ECEC04F0BB
:100C2E00E0EC04F00B0E046EB80E036E0306D8A0B3
:100C3E000406032806E10428D8A428EF06F02AEFBC
:100C4E0006F01DEF06F01200076E07C003F0D890F5
:100C5E000336D8900336C250C30B0310C26EC28245
:100C6E00C2B23CEF06F03EEF06F037EF06F0C3508F
:100C7E00C4CF03F0046A03C004F0036A0310056EC8
:100C8E000450066E05C001F006C002F01200000E00
:100C9E00046E5838F00B0410046E5950D00F041027
:100CAE00046E04C002F0000E4BEC05F0000E046E54
:100CBE005538F00B0410046E5650D00F0410046E0D
:100CCE0004C002F0010E4BEC05F0000E046E52381B
:100CDE00F00B0410046E5350D00F0410046E04C0B9
:100CEE0002F0020E4BEC05F01200B40EF66E0A0E78
:100CFE00F76E000EF86E00EE60F010EE1EF00900BA
:100D0E00F5CFEEFFE550E150FAE1AE0EF66E090EAC
:100D1E00F76E000EF86E00EE5BF010EE04F00900B8
:100D2E00F5CFEEFFE550E150FAE100EE7EF01B0E3E
:100D3E00EE6AE806FDE100EE3DF01E0EEE6AE806F4
:100D4E00FDE1000EF86E000142EF0CF0000E016E98
:100D5E000550EEEC05F0CAEF06F0010E016E03C071
:100D6E00F6FF04C0F7FFF86A050EF76403D008001B
:100D7E00F55005D0F6CFE9FFF7CFEAFFEF50EEECD6
:100D8E0005F0034A042A03C0F6FF04C0F7FFF86A11
:100D9E00050EF76403D00800F55005D0F6CFE9FF35
:100DAE00F7CFEAFFEF500009D8A4E0EF06F0E2EF2C
:100DBE0006F0B4EF06F01200E9EF06F0014A022A3F
:100DCE00034A042A03C0D9FF04C0DAFF01C0E1FFC1
:100DDE0002C0E2FFDE50E618D8A4F8EF06F0FAEFF4
:100DEE0006F006EF07F001C0D9FF02C0DAFFDF50B0
:100DFE00D8A404EF07F006EF07F0E5EF06F001C008
:100E0E00D9FF02C0DAFFDF50056E03C0D9FF04C060
:100E1E00DAFFDF50066E0650055C016E026AD8A03E
:100E2E0002061200016E0104D8A420EF07F022EF93
:100E3E0007F046EF07F0EEEC09F04B6E4B28D8B4F6
:100E4E002BEF07F02DEF07F03AEF07F05E50D8B416
:100E5E0033EF07F035EF07F03AEF07F0000E5E6E56
:100E6E004B5053EF07F04B28D8A440EF07F042EF5A
:100E7E0007F052EF07F0010E5E6E52EF07F00150D1
:100E8E00D8A44CEF07F04EEF07F052EF07F0EEEC60
:100E9E0009F053EF07F0FF0E1200020E79EC05F089
:100EAE000001936F010E79EC05F00001946F000EB6
:100EBE0079EC05F00001956F93AD68EF07F06AEFDE
:100ECE0007F075EF07F093390F0B010B300F526ED1
:100EDE0093510F0B300F536E7EEF07F093390F0BBC
:100EEE00030B300F526E93510F0B300F536E3A0EA1
:100EFE00546E94390F0B0F0B300F556E94510F0B20
:100F0E00300F566E3A0E576E95390F0B0F0B300F82
:100F1E00586E95510F0B300F596E000E5A6E12000F
:100F2E00010E5D6E010E4C6E000E086E000E076E09
:100F3E00000E0A6E000E096ECAEF07F0550E036E14
:100F4E002F0E046E810E056EADEC06F0000E19EC40
:100F5E0007F0066E060E0618D8A4B8EF07F0BAEF23
:100F6E0007F0C2EF07F0000E0A6E010E096E074A77
:100F7E00082ACAEF07F0000E0A6E000E096E000E68
:100F8E00086E000E076E08BED6EF07F0D80E075C8F
:100F9E000E0E0858D8A0D6EF07F0D8EF07F0A5EF41
:100FAE0007F009500A10D8B4DFEF07F0E1EF07F0B1
:100FBE00E3EF07F0020E516E1200000E0E6E0ABE27
:100FCE00EDEF07F0EBEF07F0F3EF07F0096C0A1EF9
:100FDE00D8B00A2A010E0E6E0CBEFAEF07F0F8EF2B
:100FEE0007F0FEEF07F00B6C0C1ED8B00C2A0B505E
:100FFE000C10D8B405EF08F007EF08F02BEF08F04F
:10100E00010E0D6E0FEF08F0D8900B360C360D2A30
:10101E000CAE14EF08F016EF08F00BEF08F00B50C3
:10102E00095C0C500A58D8A01FEF08F021EF08F009
:10103E0025EF08F00B50095E0C500A5AD8900C326E
:10104E000B320D2E16EF08F00E50D8B431EF08F01B
:10105E0033EF08F037EF08F0096C0A1ED8B00A2AF1
:10106E0009C009F00AC00AF01200040E2BEC06F0BB
:10107E0001C03DF002C03EF03F6A406A40BE56EFEE
:10108E0008F040503F1009E1E90E3D5C030E3E585A
:10109E00D8B054EF08F056EF08F094EF08F0CC0EED
:1010AE000F6E3DC001F03EC002F03FC003F040C0E5
:1010BE0004F0640E056E000E066E000E076E000E36
:1010CE00086E72EC0AF00150300F32EC05F03DC0A4
:1010DE000FF03EC010F03FC011F040C012F0640E91
:1010EE00136E000E146E000E156E000E166EF7ECDB
:1010FE0008F00FC019F010C01AF0CD0E0F6E19C007
:10110E0001F01AC002F0000E046E0A0E036E95EC8A
:10111E0008F00150300F32EC05F01200000E066E92
:10112E0004BE9EEF08F09CEF08F0A4EF08F0036CED
:10113E00041ED8B0042A010E066E02BEABEF08F0F4
:10114E00A9EF08F0B1EF08F0016C021ED8B0022A28
:10115E00010E061A000E086E000E076E03500410E4
:10116E00D8B4BCEF08F0BEEF08F0E6EF08F0010EC1
:10117E00056EC6EF08F0D89003360436052A04AE85
:10118E00CBEF08F0CDEF08F0C2EF08F0D89007369D
:10119E0008360350015C04500258D8A0D9EF08F06D
:1011AE00DBEF08F0E0EF08F00350015E0450025A46
:1011BE000780D89004320332052ECDEF08F006508A
:1011CE00D8B4ECEF08F0EEEF08F0F2EF08F0076C91
:1011DE00081ED8B0082A07C001F008C002F012009D
:1011EE00000E186E12BE00EF09F0FEEF08F00AEFC7
:1011FE0009F0121E111E101E0F6C000E102211226D
:10120E001222010E186E16BE11EF09F00FEF09F043
:10121E0019EF09F0161E151E141E136C000E142263
:10122E00152216221350141015101610D8B422EFD2
:10123E0009F024EF09F054EF09F0010E176E2EEFAE
:10124E0009F0D8901336143615361636172A16AE00
:10125E0033EF09F035EF09F028EF09F013500F5C6A
:10126E00145010581550115816501258D8A042EF5D
:10127E0009F044EF09F04CEF09F013500F5E1450D3
:10128E00105A1550115A1650125AD890163215324D
:10129E0014321332172E35EF09F01850D8B45AEF16
:1012AE0009F05CEF09F064EF09F0121E111E101E1A
:1012BE000F6C000E1022112212220FC00FF010C060
:1012CE0010F011C011F012C012F01200A90E026E31
:1012DE002E0E036EB8EC05F0FC0E026E2F0E036E92
:1012EE00B8EC05F0000E056E010E046E000E076ED2
:1012FE00000E066E7E0E0624D96E000E0720DA6EE4
:10130E0004500A0DF35006248EEC05F0DF6E064AEB
:10131E00072A07BE9CEF09F0075009E10A0E065C8A
:10132E00D8A09CEF09F09EEF09F081EF09F00001C3
:10133E007E511CEC05F000017F511CEC05F03A0EBD
:10134E001CEC05F0000180511CEC05F000018151F0
:10135E001CEC05F03A0E1CEC05F0000182511CEC61
:10136E0005F0000183511CEC05F0200E1CEC05F07D
:10137E00000184511CEC05F0000185511CEC05F0B8
:10138E00200E1CEC05F0000186511CEC05F000014E
:10139E0087511CEC05F0FC0E026E2F0E036EB8EC9E
:1013AE0005F0044A052A05BEE6EF09F0055009E1ED
:1013BE000A0E045CD8A0E6EF09F0E8EF09F07DEF25
:1013CE0009F0010E00017D6F020E516E1200819A1E
:1013DE00818C818E81B2F6EF09F0F8EF09F0FBEF08
:1013EE0009F0010E71EF0AF081B400EF0AF002EF7E
:1013FE000AF005EF0AF0040E71EF0AF081B60AEF5B
:10140E000AF00CEF0AF00FEF0AF0070E71EF0AF078
:10141E0081B814EF0AF016EF0AF019EF0AF00A0E6F
:10142E0071EF0AF0818A819C818E81B221EF0AF0E0
:10143E0023EF0AF026EF0AF0020E71EF0AF081B4E4
:10144E002BEF0AF02DEF0AF030EF0AF0050E71EFD8
:10145E000AF081B635EF0AF037EF0AF03AEF0AF0EC
:10146E00080E71EF0AF081B83FEF0AF041EF0AF073
:10147E0044EF0AF00B0E71EF0AF0818A818C819E87
:10148E00819E81B24DEF0AF04FEF0AF052EF0AF053
:10149E00030E71EF0AF081B457EF0AF059EF0AF01C
:1014AE005CEF0AF0060E71EF0AF081B661EF0AF0FA
:1014BE0063EF0AF066EF0AF0090E71EF0AF081B8D9
:1014CE006BEF0AF06DEF0AF070EF0AF00C0E71EF91
:1014DE000AF0FF0E1200000E0A6E08BE7BEF0AF035
:1014EE0079EF0AF085EF0AF0081E071E061E056C3E
:1014FE00000E062207220822010E0A6E04BE8CEF91
:10150E000AF08AEF0AF096EF0AF0041E031E021E7E
:10151E00016C000E022203220422010E0A1A000E92
:10152E000B6E000E0C6E000E0D6E000E0E6E055044
:10153E00061007100810D8B4A7EF0AF0A9EF0AF0AA
:10154E00DFEF0AF0010E096EB3EF0AF0D890053600
:10155E00063607360836092A08AEB8EF0AF0BAEF93
:10156E000AF0ADEF0AF0D8900B360C360D360E366B
:10157E000550015C06500258075003580850045895
:10158E00D8A0CCEF0AF0CEEF0AF0D7EF0AF0055054
:10159E00015E0650025A0750035A0850045A0B8037
:1015AE00D8900832073206320532092EBAEF0AF009
:1015BE000A50D8B4E5EF0AF0E7EF0AF0EFEF0AF0C1
:1015CE000E1E0D1E0C1E0B6C000E0C220D220E227A
:1015DE000BC001F00CC002F00DC003F00EC004F001
:1015EE00120052C089F053C08AF055C08BF056C01D
:1015FE008CF058C08DF059C08EF0D8904934D96E09
:10160E004A34DA6E600ED926000EDA22DECFF6FFED
:10161E00DDCFF7FF0800F5CF8FF0D8904934D96EA3
:10162E004A34DA6E600ED926000EDA22DECF19F0B9
:10163E00DDCF1AF0010E1926000E1A2219C0F6FF80
:10164E001AC0F7FF0800F5CF90F00A0E056E000ED7
:10165E00066E000E076E000E086E3DC001F03EC015
:10166E0002F03FC003F040C004F072EC0AF001C07B
:10167E000FF002C010F003C011F004C012F00A0EF9
:10168E00136E000E146E000E156E000E166EF7EC35
:10169E0008F00F50300F0001916F3DC00FF03EC0AB
:1016AE0010F03FC011F040C012F00A0E136E000E83
:1016BE00146E000E156E000E166EF7EC08F00F503D
:1016CE00300F0001926F000E1B6E890E1B24D96E17
:1016DE00DA6A000EDA22DF50026E5D500A0DF35008
:1016EE001B240BEC06F01B2A090E1B6481EF0BF07A
:1016FE0083EF0BF06CEF0BF05D2A0B0E5D18D8A488
:10170E008BEF0BF08DEF0BF08FEF0BF0010E5D6E8C
:10171E001200010E19EC07F01C6EDC0E036E2F0E7C
:10172E00046E820E056EADEC06F0F90E036E2F0EF2
:10173E00046E890E056EADEC06F0F30E036E2F0EE1
:10174E00046E8C0E056EADEC06F054EC07F001EC59
:10175E0005F03CEC08F0020E1C18D8A4B9EF0BF003
:10176E00BBEF0BF0CDEF0BF0000E4C6E1C50F8ECF7
:10177E000AF04A5007E1050E495CD8B0C9EF0BF0EC
:10178E00CBEF0BF0CDEF0BF0494A4A2A030E1C1893
:10179E00D8A4D4EF0BF0D6EF0BF0F4EF0BF0000E55
:1017AE004C6E1C50F8EC0AF04A5009E1020E495CEE
:1017BE00D8A0E4EF0BF0E6EF0BF0F4EF0BF04A508D
:1017CE0007E1060E495CD8B0EFEF0BF0F1EF0BF02E
:1017DE00F4EF0BF04906D8A04A061C04D8A4FAEF81
:1017EE000BF0FCEF0BF005EF0CF0000E4C6E1C50E6
:1017FE00F8EC0AF0000E4A6E060E496E060E4918F7
:10180E004A10D8A40DEF0CF00FEF0CF025EF0CF0F2
:10181E00020E1C18D8B416EF0CF018EF0CF021EFD6
:10182E000CF0030E1C18D8A41FEF0CF021EF0CF0D7
:10183E0025EF0CF0000E4A6E020E496ED890493418
:10184E00D96E4A34DA6E600ED926000EDA22DECF59
:10185E0003F0DDCF04F0C90E056EADEC06F0050EFB
:10186E001C18D8A43DEF0CF03FEF0CF090EF0BF0EE
:10187E00010E516E12003EEC05F0000E3C6E000E95
:10188E003B6E780E3B24D96E000E3C20DA6EDF5094
:10189E00026E3B500BEC06F03B4A3C2A3CBE61EF1D
:1018AE000CF03C5009E1040E3B5CD8A061EF0CF04B
:1018BE0063EF0CF048EF0CF0010E19EC07F04F6ED1
:1018CE005150D8A46DEF0CF06FEF0CF079EF0CF0D7
:1018DE00000E016E010EEEEC05F04F5090EC0BF089
:1018EE0063EF0CF05104D8A47FEF0CF081EF0CF0F5
:1018FE0086EF0CF04F504DEC12F063EF0CF0020E31
:10190E005118D8A48DEF0CF08FEF0CF0A7EF0CF060
:10191E0052500A0DF3505324F00F4E6E55500A0DCF
:10192E00F3505624F00F4D6E58500A0DF3505924B3
:10193E00F00F0001986F4F50FEEC0DF063EF0CF0BE
:10194E00030E5118D8A4AEEF0CF0B0EF0CF063EF0D
:10195E000CF05050D8A4B6EF0CF0B8EF0CF0BDEF71
:10196E000CF04F50F8EC0CF063EF0CF05004D8A4D0
:10197E00C3EF0CF0C5EF0CF0CAEF0CF04F506DEC4E
:10198E0009F063EF0CF0020E5018D8A4D1EF0CF052
:10199E00D3EF0CF0D8EF0CF04F5097EC07F063EF4D
:1019AE000CF0030E5018D8A4DFEF0CF0E1EF0CF0A2
:1019BE00E6EF0CF04F50AAEC14F063EF0CF0040EAF
:1019CE005018D8A4EDEF0CF0EFEF0CF0F4EF0CF094
:1019DE004F501DEC10F063EF0CF063EF0CF000EFC6
:1019EE0000F0000E126E000E116E000E1F6E000E35
:1019FE001E6E000E016E010EEEEC05F0970E036EDC
:101A0E002F0E046E830E056EADEC06F0000E19EC73
:101A1E0007F0226E2228D8B417EF0DF019EF0DF053
:101A2E0034EF0DF022C01DF01E4A1F2A1FBE29EFF3
:101A3E000DF01F5009E1C90E1E5CD8A029EF0DF064
:101A4E002BEF0DF030EF0DF022500A0F226E57EFF4
:101A5E000DF0000E226E57EF0DF01FBE42EF0DF08F
:101A6E001F5007E1C80E1E5CD8B040EF0DF042EFDC
:101A7E000DF053EF0DF01E501F10D8B449EF0DF0BE
:101A8E004BEF0DF053EF0DF0000E1F6E000E1E6E9D
:101A9E001DC022F057EF0DF0000E1F6E000E1E6ED1
:101AAE00090E5C645DEF0DF05FEF0DF063EF0DF06E
:101ABE00010E5C6E010E5B6E4C50D8B469EF0DF0EA
:101ACE006BEF0DF075EF0DF0C60E036E2F0E046E5C
:101ADE00C30E056EADEC06F0E2EF0DF0000E216EBA
:101AEE00000E206E130E2024D96E000E2120DA6E09
:101AFE005C500A0DF35020248EEC05F0DF6E204A68
:101B0E00212A21BE94EF0DF0215009E10A0E205C2E
:101B1E00D8A094EF0DF096EF0DF079EF0DF0C00E0A
:101B2E000F6E5B50300F32EC05F0C20E0F6E13507D
:101B3E0032EC05F0C30E0F6E145032EC05F0C40EED
:101B4E000F6E3A0E32EC05F0C50E0F6E155032ECDC
:101B5E0005F0C60E0F6E165032EC05F0C70E0F6E66
:101B6E003A0E32EC05F0C80E0F6E175032EC05F03F
:101B7E00C90E0F6E185032EC05F0CA0E0F6E200E05
:101B8E0032EC05F0CB0E0F6E195032EC05F0CC0E88
:101B9E000F6E1A5032EC05F0CD0E0F6E200E32EC99
:101BAE0005F0CE0E0F6E1B5032EC05F0CF0E0F6E01
:101BBE001C5032EC05F0060E2218D8A4E9EF0DF0F9
:101BCE00EBEF0DF0EDEF0DF05C2A5B2A100E2218F4
:101BDE00D8A4F4EF0DF0F6EF0DF00DEF0DF0000EB2
:101BEE00016E010EEEEC05F0020E516E1200000EAB
:101BFE001A6E000E196E000E186E000E176E000E85
:101C0E00156E000E146E000E136E000E126E000E88
:101C1E00016E010EEEEC05F0000E19EC07F0166EDB
:101C2E001628D8B41DEF0EF01FEF0EF03AEF0EF09F
:101C3E0016C011F0144A152A15BE2FEF0EF0E90E3C
:101C4E00145C030E1558D8A02FEF0EF031EF0EF0E6
:101C5E0036EF0EF016500A0F166E5DEF0EF0000EF8
:101C6E00166E5DEF0EF015BE48EF0EF0E80E145C2A
:101C7E00030E1558D8B046EF0EF048EF0EF059EFA0
:101C8E000EF014501510D8B44FEF0EF051EF0EF0B9
:101C9E0059EF0EF0000E156E000E146E11C016F0F8
:101CAE005DEF0EF0000E156E000E146E050E16187A
:101CBE00D8A464EF0EF066EF0EF08AEF0EF0170464
:101CCE001810D8A46DEF0EF06FEF0EF075EF0EF04A
:101CDE00000E186E000E176E8AEF0EF01ABE80EF11
:101CEE000EF01A5008E11904D8A080EF0EF082EF22
:101CFE000EF08AEF0EF01906D8A01A06000E016E2D
:101D0E00010EEEEC05F0060E1618D8A491EF0EF0AB
:101D1E0093EF0EF0BEEF0EF017501810D8A49AEFF6
:101D2E000EF09CEF0EF0A2EF0EF0000E186E010EEC
:101D3E00176EBEEF0EF01ABEA7EF0EF0A9EF0EF063
:101D4E00BEEF0EF01ABEB7EF0EF01A5007E1030EFB
:101D5E00195CD8B0B5EF0EF0B7EF0EF0BEEF0EF087
:101D6E00194A1A2A000E016E010EEEEC05F0124A07
:101D7E00132A13BECEEF0EF0F40E125C010E1358A2
:101D8E00D8B0CCEF0EF0CEEF0EF0EFEF0EF0175006
:101D9E001810D8A4D5EF0EF0D7EF0EF0E3EF0EF03B
:101DAE00800E0F6E2A0E32EC05F0C00E0F6E200E56
:101DBE0032EC05F030EF0FF0800E0F6E200E32EC8D
:101DCE0005F0C00E0F6E2A0E32EC05F030EF0FF05C
:101DDE0013BEFBEF0EF0F40E125C010E1358D8A0DA
:101DEE00FBEF0EF0FDEF0EF02CEF0FF013BE0BEF2E
:101DFE000FF0E80E125C030E1358D8B009EF0FF077
:101E0E000BEF0FF02CEF0FF017501810D8A412EFA5
:101E1E000FF014EF0FF020EF0FF0800E0F6E200E6C
:101E2E0032EC05F0C00E0F6E200E32EC05F030EFE6
:101E3E000FF0800E0F6E200E32EC05F0C00E0F6EFE
:101E4E00200E32EC05F030EF0FF0000E136E000E88
:101E5E00126ED8901934D96E1A34DA6E6E0ED926E7
:101E6E00000EDA22DECF03F0DDCF04F0810E056E18
:101E7E00ADEC06F0D8901934D96E1A34DA6E700EB5
:101E8E00D926000EDA22DECF03F0DDCF04F0C10E2C
:101E9E00056EADEC06F00F0E1618D8A459EF0FF024
:101EAE005BEF0FF00CEF10F0000E016E010EEEEC7A
:101EBE0005F0030E516E19501A10D8A469EF0FF0E9
:101ECE006BEF0FF078EF0FF017501810D8A472EFD9
:101EDE000FF074EF0FF078EF0FF0000E506E1CEF56
:101EEE0010F019501A10D8A47FEF0FF081EF0FF0F9
:101EFE008AEF0FF017041810D8B488EF0FF08AEF9E
:101F0E000FF09CEF0FF019041A10D8A491EF0FF0F8
:101F1E0093EF0FF0A0EF0FF017501810D8A49AEF10
:101F2E000FF09CEF0FF0A0EF0FF0010E506E1CEFB4
:101F3E0010F019041A10D8A4A7EF0FF0A9EF0FF0A4
:101F4E00B2EF0FF017041810D8B4B0EF0FF0B2EFD5
:101F5E000FF0C5EF0FF0020E19181A10D8A4BAEF31
:101F6E000FF0BCEF0FF0C9EF0FF017501810D8A4F8
:101F7E00C3EF0FF0C5EF0FF0C9EF0FF0020E506E6A
:101F8E001CEF10F0020E19181A10D8A4D1EF0FF092
:101F9E00D3EF0FF0DCEF0FF017041810D8B4DAEF10
:101FAE000FF0DCEF0FF0EFEF0FF0030E19181A1011
:101FBE00D8A4E4EF0FF0E6EF0FF0F3EF0FF01750A9
:101FCE001810D8A4EDEF0FF0EFEF0FF0F3EF0FF0C6
:101FDE00030E506E1CEF10F0030E19181A10D8A431
:101FEE00FBEF0FF0FDEF0FF00AEF10F017041810D3
:101FFE00D8A404EF10F006EF10F00AEF10F0040E64
:10200E00506E1CEF10F01CEF10F0100E1618D8A426
:10201E0013EF10F015EF10F013EF0EF0000E016E2F
:10202E00010EEEEC05F0000E516E1200000E016E68
:10203E00010EEEEC05F0000E2C6E000E2D6E000E55
:10204E002E6E000E2F6E000E286E000E276E000EE6
:10205E00016E010EEEEC05F0C00E036E2E0E046E38
:10206E00800E056EADEC06F0000E316E000E306E79
:10207E00D1EF10F0010E19EC07F02B6E2CC011F001
:10208E002DC012F02EC013F02FC014F02C2A000E0B
:10209E002D222E222F2214BE63EF10F01450131097
:1020AE0009E1D00E115C070E1258D8B061EF10F096
:1020BE0063EF10F06BEF10F03050C00F0F6E5F0E2D
:1020CE0032EC05F09DEF10F02FBE7AEF10F02F508E
:1020DE002E100BE1D10E2C5C070E2D58D8A07AEFE6
:1020EE0010F07CEF10F095EF10F02FBE8DEF10F08A
:1020FE002F502E1009E1A00E2C5C0F0E2D58D8B0CB
:10210E008BEF10F08DEF10F095EF10F03050C00FF8
:10211E000F6E200E32EC05F09DEF10F0000E2C6EBF
:10212E00000E2D6E000E2E6E000E2F6E050E2B184D
:10213E00D8A4A4EF10F0A6EF10F0B8EF10F03050C6
:10214E00C00F0F6E2A0E32EC05F0220E3024D96E1F
:10215E00000E3120DA6E300EDF6E304A312AD1EFAA
:10216E0010F0060E2B18D8A4BFEF10F0C1EF10F030
:10217E00D1EF10F03050C00F0F6E2A0E32EC05F07A
:10218E00220E3024D96E000E3120DA6E310EDF6E43
:10219E00B4EF10F031BEDDEF10F0315009E1040E56
:1021AE00305CD8A0DDEF10F0DFEF10F041EF10F053
:1021BE00220E3024D96E000E3120DA6EDF6A000E48
:1021CE00016E010EEEEC05F0F50E036E2E0E046E92
:1021DE00800E056EADEC06F0000E316E000E306E08
:1021EE0089EF11F0010E19EC07F02B6E2CC011F0D7
:1021FE002DC012F02EC013F02FC014F02C2A000E9A
:10220E002D222E222F2214BE1BEF11F0145013106C
:10221E0009E1D00E115C070E1258D8B019EF11F06B
:10222E001BEF11F023EF11F03050C00F0F6E5F0E49
:10223E0032EC05F055EF11F02FBE32EF11F02F50AA
:10224E002E100BE1D10E2C5C070E2D58D8A032EFBC
:10225E0011F034EF11F04DEF11F02FBE45EF11F0EC
:10226E002F502E1009E1A00E2C5C0F0E2D58D8B059
:10227E0043EF11F045EF11F04DEF11F03050C00F5C
:10228E000F6E200E32EC05F055EF11F0000E2C6E95
:10229E00000E2D6E000E2E6E000E2F6E050E2B18DC
:1022AE00D8A45CEF11F05EEF11F070EF11F030502A
:1022BE00C00F0F6E2A0E32EC05F0150E3024D96EBB
:1022CE00000E3120DA6E300EDF6E304A312A89EF81
:1022DE0011F0060E2B18D8A477EF11F079EF11F04C
:1022EE0089EF11F03050C00F0F6E2A0E32EC05F050
:1022FE00150E3024D96E000E3120DA6E310EDF6EDF
:10230E006CEF11F031BE95EF11F0315009E1040E72
:10231E00305CD8A095EF11F097EF11F0F9EF10F0B7
:10232E00150E3024D96E000E3120DA6EDF6A220EC1
:10233E00016E000E026E150E036E000E046EE3ECBF
:10234E0006F001500210D8A4AFEF11F0B1EF11F06A
:10235E0010EF12F0000E2A6E000E296E220E2924A6
:10236E00D96E000E2A20DA6EDF50026E29500BEC69
:10237E0006F0294A2A2A2ABECEEF11F02A5009E188
:10238E00040E295CD8A0CEEF11F0D0EF11F0B5EF0E
:10239E0011F0000E286E010E276E000E016E010E5A
:1023AE00EEEC05F0270E036E2F0E046E800E056EFA
:1023BE00ADEC06F07F0E036E2F0E046EC20E056E90
:1023CE00ADEC06F0A00E1A6EBB0E1B6E0D0E1C6E43
:1023DE00000E1D6EFF0E1A26FF0E1B22FF0E1C2274
:1023EE00FF0E1D221A280AE11B2808E11C2806E10F
:1023FE001D28D8A405EF12F007EF12F0F1EF11F03F
:10240E00020E516E000E016E010EEEEC05F043EF62
:10241E0012F0000E016E010EEEEC05F0060E036ECC
:10242E002F0E046E800E056EADEC06F0D60E036E0A
:10243E002F0E046EC30E056EADEC06F0A00E1E6ED2
:10244E00BB0E1F6E0D0E206E000E216EFF0E1E2691
:10245E00FF0E1F22FF0E2022FF0E21221E280AE150
:10246E001F2808E1202806E12128D8A441EF12F008
:10247E0043EF12F02DEF12F027502810D8B44AEF88
:10248E0012F04CEF12F02EEF10F01200000E016E53
:10249E00010EEEEC05F0000E306E020E2F6E000EE9
:1024AE003A6E000E396E000E1A6E000E1B6E000E86
:1024BE001C6E000E1D6E000E316E000E326E000E82
:1024CE00336E000E346E370E036E2F0E046E800EBA
:1024DE00056EADEC06F0010E1A26000E1B221C2214
:1024EE001D22110E1A1809E1270E1B181C101D10A3
:1024FE00D8A484EF12F086EF12F08FEF12F0000ED8
:10250E00516E000E016E010EEEEC05F0A9EF14F007
:10251E00010E19EC07F02E6E3ABEA1EF12F03A50F2
:10252E0007E1040E395CD8B09FEF12F0A1EF12F064
:10253E0034EF13F031C011F032C012F033C013F08B
:10254E0034C014F0312A000E32223322342214BE4B
:10255E00BFEF12F01450131009E1F40E115C010ECE
:10256E001258D8B0BDEF12F0BFEF12F0C7EF12F055
:10257E003950C00F0F6E5F0E32EC05F0F9EF12F00E
:10258E0034BED6EF12F0345033100BE1F50E315C41
:10259E00010E3258D8A0D6EF12F0D8EF12F0F1EFAC
:1025AE0012F034BEE9EF12F03450331009E1E80EA8
:1025BE00315C030E3258D8B0E7EF12F0E9EF12F0AB
:1025CE00F1EF12F03950C00F0F6E200E32EC05F005
:1025DE00F9EF12F0000E316E000E326E000E336EF9
:1025EE00000E346E050E2E18D8A400EF13F002EF75
:1025FE0013F014EF13F03950C00F0F6E2A0E32EC99
:10260E0005F0150E3924D96E000E3A20DA6E300E12
:10261E00DF6E394A3A2A2DEF13F0060E2E18D8A483
:10262E001BEF13F01DEF13F02DEF13F03950C00F09
:10263E000F6E2A0E32EC05F0150E3924D96E000EEF
:10264E003A20DA6E310EDF6E10EF13F0150E3924CC
:10265E00D96E000E3A20DA6EDF6A000E386E000E6A
:10266E00376E150E3724D96E000E3820DA6E3750BD
:10267E008EEC05F0126EDE501218D8B449EF13F03E
:10268E004BEF13F04DEF13F05DEF13F0374A382A8E
:10269E0038BE5BEF13F0385009E1040E375CD8A05A
:1026AE005BEF13F05DEF13F038EF13F0040E3718F5
:1026BE003810D8A465EF13F067EF13F096EF13F010
:1026CE00000E016E010EEEEC05F08C0E036E2F0E59
:1026DE00046E800E056EADEC06F0A00E1E6EBB0EE7
:1026EE001F6E0D0E206E000E216EFF0E1E26FF0EAB
:1026FE001F22FF0E2022FF0E21221E280AE11F2874
:10270E0008E1202806E12128D8A490EF13F092EFDB
:10271E0013F07CEF13F0020E516EA9EF14F03ABED7
:10272E00A2EF13F03A5009E1040E395CD8A0A2EFE3
:10273E0013F0A4EF13F013EF14F0000E016E010E60
:10274E00EEEC05F0460E036E2F0E046E800E056E37
:10275E00ADEC06F0C00E0F6E2FC009F030C00AF0BF
:10276E00000E0C6E0A0E0B6EE4EC07F00950300FE3
:10277E0032EC05F0640E036E2F0E046EC30E056E62
:10278E00ADEC06F0500E226EC30E236E000E246EBC
:10279E00000E256EFF0E2226FF0E2322FF0E242290
:1027AE00FF0E252222280AE1232808E1242806E12B
:1027BE002528D8A4E5EF13F0E7EF13F0D1EF13F0CF
:1027CE00000E3A6E000E396E2F06D8A03006800E1F
:1027DE00266E380E276E010E286E000E296EFF0E25
:1027EE002626FF0E2722FF0E2822FF0E292226283C
:1027FE000AE1272808E1282806E12928D8A40AEFAB
:10280E0014F00CEF14F0F6EF13F0000E016E010E43
:10281E00EEEC05F06AEF12F02F2806E13028D8A46E
:10282E001BEF14F01DEF14F0A7EF14F0000E016E65
:10283E00010EEEEC05F0000E366EB40E356E93EF13
:10284E0014F0CE0E036E2F0E046E800E056EADECE0
:10285E0006F0C10E0F6E35C001F036C002F0000E4C
:10286E00046E640E036E95EC08F00150300F32ECDE
:10287E0005F0C20E0F6E000E046E0A0E036E35C00A
:10288E0001F036C002F095EC08F001C009F002C06C
:10289E000AF0000E0C6E0A0E0B6EE4EC07F00950F7
:1028AE00300F32EC05F0C30E0F6E35C009F036C096
:1028BE000AF0000E0C6E0A0E0B6EE4EC07F00950D7
:1028CE00300F32EC05F0AB0E036E2F0E046EC60EFB
:1028DE00056EADEC06F03506D8A03606200E2A6E33
:1028EE00A10E2B6E070E2C6E000E2D6EFF0E2A26DD
:1028FE00FF0E2B22FF0E2C22FF0E2D222A280AE17C
:10290E002B2808E12C2806E12D28D8A491EF14F0ED
:10291E0093EF14F07DEF14F035503610D8A49AEFE3
:10292E0014F09CEF14F028EF14F0000E306E020E2F
:10293E002F6E000E016E010EEEEC05F06AEF12F036
:10294E006AEF12F01200E40E036E2E0E046E800E6D
:10295E00056EADEC06F052500A0DF3CF1CF0F4CF1D
:10296E001DF053501C26000E1D22F00E1C24216E4D
:10297E00FD0E1D20226E55500A0DF3CF1CF0F4CF24
:10298E001DF056501C26000E1D22F00E1C24236E28
:10299E00FD0E1D20246E58500A0DF3CF1CF0F4CFFF
:1029AE001DF059501C26000E1D22F00E1C24256E03
:1029BE00FD0E1D20266EC60E0F6E545032EC05F025
:1029CE00C90E0F6E575032EC05F0DF0E036E2E0E51
:1029DE00046EC00E056EADEC06F0DF0E036E2E0E0D
:1029EE00046ECC0E056EADEC06F047504810D8A420
:1029FE0003EF15F005EF15F04AEF15F0C80E41186C
:102A0E004210D8A40DEF15F00FEF15F01BEF15F0D7
:102A1E00CA0E0F6E585032EC05F0CB0E0F6E595099
:102A2E0032EC05F034EF15F0900E411806E1420439
:102A3E00D8A424EF15F026EF15F034EF15F0000EA4
:102A4E00426E000E416ECA0E0F6E200E32EC05F075
:102A5E00CB0E0F6E200E32EC05F0C40E0F6E5250E0
:102A6E0032EC05F0C50E0F6E535032EC05F0C70E6A
:102A7E000F6E555032EC05F0C80E0F6E565032ECFC
:102A8E0005F0E5EF15F047044810D8A451EF15F006
:102A9E0053EF15F098EF15F0C80E41184210D8A458
:102AAE005BEF15F05DEF15F069EF15F0C70E0F6EC9
:102ABE00555032EC05F0C80E0F6E565032EC05F044
:102ACE0082EF15F0900E411806E14204D8A472EF81
:102ADE0015F074EF15F082EF15F0000E426E000E39
:102AEE00416EC70E0F6E200E32EC05F0C80E0F6E43
:102AFE00200E32EC05F0C40E0F6E525032EC05F083
:102B0E00C50E0F6E535032EC05F0CA0E0F6E5850B4
:102B1E0032EC05F0CB0E0F6E595032EC05F0E5EFAE
:102B2E0015F0020E47184810D8A4A0EF15F0A2EF2A
:102B3E0015F0E5EF15F0C80E41184210D8A4AAEF13
:102B4E0015F0ACEF15F0B8EF15F0C40E0F6E525035
:102B5E0032EC05F0C50E0F6E535032EC05F0D1EF8E
:102B6E0015F0900E411806E14204D8A4C1EF15F0FD
:102B7E00C3EF15F0D1EF15F0000E426E000E416E50
:102B8E00C40E0F6E200E32EC05F0C50E0F6E200E29
:102B9E0032EC05F0C70E0F6E555032EC05F0C80E34
:102BAE000F6E565032EC05F0CA0E0F6E585032ECC6
:102BBE0005F0CB0E0F6E595032EC05F0414A422A09
:102BCE00000E19EC07F0206E050E2018D8A4F2EFB7
:102BDE0015F0F4EF15F034EF16F0454A462A46BECE
:102BEE0002EF16F0210E455C030E4658D8A002EFF8
:102BFE0016F004EF16F0F7EF16F0000E466E000E0C
:102C0E00456E0B0E1F6EB80E1E6E16EF16F0D30E1F
:102C1E00036E2E0E046EC00E056EADEC06F01E0693
:102C2E00D8A01F061E2806E11F28D8A421EF16F0F3
:102C3E0023EF16F00EEF16F04EEC06F00A0EF8EC3F
:102C4E000AF0020E516E5068000E016E010EEEEC8F
:102C5E0005F0F7EF16F0F7EF16F046BE3FEF16F061
:102C6E00465008E14504D8A03FEF16F041EF16F0AC
:102C7E00F3EF16F046BE4FEF16F0200E455C030E36
:102C8E004658D8B04DEF16F04FEF16F0F3EF16F0A2
:102C9E00000E466E000E456E47504810D8A45AEFEF
:102CAE0016F05CEF16F088EF16F0254A262A3C0E39
:102CBE0025182610D8A466EF16F068EF16F06CEF04
:102CCE0016F0000E266E000E256E25C001F026C0F1
:102CDE0002F0000E046E0A0E036E95EC08F0015021
:102CEE00300F586E25C009F026C00AF0000E0C6E8B
:102CFE000A0E0B6EE4EC07F00950300F596EF7EF29
:102D0E0016F047044810D8A48FEF16F091EF16F086
:102D1E00BDEF16F0234A242A3C0E23182410D8A403
:102D2E009BEF16F09DEF16F0A1EF16F0000E246E3D
:102D3E00000E236E23C001F024C002F0000E046EBC
:102D4E000A0E036E95EC08F00150300F556E23C03D
:102D5E0009F024C00AF0000E0C6E0A0E0B6EE4ECA5
:102D6E0007F00950300F566EF7EF16F0020E4718A7
:102D7E004810D8A4C5EF16F0C7EF16F032EF16F0D4
:102D8E00214A222A180E21182210D8A4D1EF16F0AB
:102D9E00D3EF16F0D7EF16F0000E226E000E216E56
:102DAE0021C001F022C002F0000E046E0A0E036E66
:102DBE0095EC08F00150300F526E21C009F022C080
:102DCE000AF0000E0C6E0A0E0B6EE4EC07F00950C2
:102DDE00300F536EF7EF16F0000E466E000E456E76
:102DEE00060E2018D8A4FEEF16F000EF17F01AEF1B
:102DFE0017F0434A442A44BE0EEF17F0210E435CEF
:102E0E00030E4458D8A00EEF17F010EF17F053EF43
:102E1E0017F0020E516E5068000E016E010EEEECB0
:102E2E0005F053EF17F044BE25EF17F0445008E1BC
:102E3E004304D8A025EF17F027EF17F04FEF17F048
:102E4E0044BE35EF17F0200E435C030E4458D8B045
:102E5E0033EF17F035EF17F04FEF17F0000E446E0B
:102E6E00000E436E000E446E000E436E474A482A13
:102E7E00030E47184810D8A447EF17F049EF17F084
:102E8E0053EF17F0000E486E000E476E53EF17F01B
:102E9E00000E446E000E436E120000446F776E6C8F
:102EAE006F61646564205375636365737366756CD7
:102EBE002100456E746572204E65772050617373E4
:102ECE00776F72640020202020535543434553539F
:102EDE00202020202000202020205345542054491B
:102EEE004D452020202000436F6E6669726D205084
:102EFE00617373776F72640050617373776F72646E
:102F0E007320446F204E6F74004368616E676520B6
:102F1E0070617373776F7264004368616E676520CA
:102F2E0050617373776F726400456E7465722050D2
:102F3E00617373776F72640057726F6E6720706182
:102F4E007373776F7264004C6F677320436C6561A7
:102F5E00726564212100417474656D707473204C28
:102F6E0065667400446F776E6C6F6164206C6F677A
:102F7E00005375636365737366756C212100537519
:102F8E00636365737366756C0056494557204C4FE5
:102F9E00475300436C656172206C6F670073656305
:102FAE00206C656674005365742074696D650056F7
:102FBE00696577206C6F670028456D7074792900FC
:102FCE00626C6F636B6564004D6174636800544995
:102FDE004D45004731004732004733002D4300472F
:102FEE004E004F4E005350004752004556000A0DFA
:022FFE000000D1
:020000040020DA
:08000000FFFFFFFFFFFFFFFF00
:020000040030CA
:0E000000FF071F1FFF8285FF0FC00FE00F409C
:00000001FF
